:020000040000FA
:100000000128831603138601831203138601092036
:100010003620023020200C302020283020200800FC
:10002000C03020200800A200220E1920220819202A
:1000300008000F398600061606172D200613080043
:10004000A200220E26202208262008000F39860052
:10005000061206172D2006130800FF30A000FF30FF
:10006000A100A10B3128A00B2F2808004E3013202F
:10007000493013204C3013204130132059301320C5
:1000800010204E301320493013204C3013204130C3
:08009000132059301320080071
:00000001FF
